:0400000080315228D1
:1000080080312000111F0C28111321001C081B0827
:100018002000111E262811123F08203E8600870165
:100028000108003A031925283F08203E86000108E8
:1000380023009A0020003F08203E86008101BF0A65
:100048002628BF01911E3028911223001908F600B6
:100058007608843134248031131C37282100131C7E
:100068003728200013102000111C45281110960174
:100078007F309700D20A0319D30A0319D40A031947
:10008800D50A0B1D09007718502803303E020318C3
:100098004F28BE0A5028BE010B1109008031542890
:1000A8002030F701F80184000030850036308431B3
:1000B800C6248031A0308400003085003930843176
:1000C800C62480312000682823008C012200910179
:1000D80021008C018E0120308D00F3302200970022
:1000E800803021009E0075309D0040309F00111720
:1000F800951295151510951015118B16893020003D
:100108009800210011142000BF0193283F08203EC9
:100118008600870181013F08A03E86008101BF0A51
:100128003F0B8A2823001D169E161E129F159D1729
:100138001E1501309C00A0309B002100911611165D
:100148005230C6208031F8001310210013100B170D
:100158008B172000BE01B62852307714C620803194
:10016800F80077103E08003A0319B028013A03193D
:10017800B628033A0319B628013A0319B628B6284F
:10018800803152282000EF003A228031CB28E3004A
:100198000330D60063080C3E8600870101088521DC
:1001A800B03EE200BE30E400860087016208843178
:1001B8000A0082314722803184310A008231472285
:1001C800803184310A0080318100E40A64088600A5
:1001D8002030870181000330E40AD6006308083E16
:1001E8008600010885218B3EE200640886008701AD
:1001F800620884310A0082314722803184310A0042
:1002080082314722803184310A00813181002030D7
:100218002100C5002000630886008701463FDE00F4
:100228002030DF00E000C8305E218031630886009E
:100238008701443F4F228031CB305E2180316308F3
:1002480086008701423F4F228031CE305E218031C7
:100258006308860087010108DE003030DF002030A7
:10026800E000D1305E2180316430D600D7015522BC
:100278008031D800413FD900CA2180315608133E49
:10028800DE002030DF00D430E0015E2180316430B0
:10029800D600D70155228031D800413FD90091219D
:1002A80080315608DE003030DF000A30E000D630FA
:1002B8005E21BE34E1008600870160088100E10309
:1002C800610886000A30D6005E080A228031303E76
:1002D80081000A30D6005E0822228031DE00003A12
:1002E80003197E29E1036108860087015E08303E14
:1002F80081000800E1036108860087015F0881002A
:100308000800D800D70156085818D707D635D83668
:10031800D808031D872957080800DB01D91F9B2926
:10032800D809D909D80A0319D90ADB01DB0AD71F6A
:10033800A229D609D709D60A0319D70A5708560495
:100348000319BD29DA01DA0AD71BAD29D635D70D2D
:10035800A72957085902031DB32956085802031C38
:10036800B9295608D8025708D93BD736D60CDA0B24
:10037800AD295B080319C529D809D909D80A031971
:10038800D90A5908D7005808D6000800DB01D71F3A
:10039800D429D609D709D60A0319D70ADB01DB0AFB
:1003A800D91FDD29D809D909D80A0319D90A013072
:1003B800DB06DC01DD01570856040319FD29DA01C3
:1003C800DA0AD71BEA29D635D70DE429DC35DD0D45
:1003D80057085902031DF22956085802031CF92927
:1003E8005608D8025708D93B5C14D736D60CDA0B16
:1003F800EA295B080319052ADC09DD09DC0A031967
:10040800DD0A5D08D7005C08D6000800D80008306F
:10041800D900DA015808D7000730D736890B112AD6
:100428005A355704DA00D83556085A02031C1E2AD2
:100438005608DA02D90B0E2A5A080800D700D90143
:1004480056080319382AD801D80AD61B2D2AD635BA
:10045800282AD93556085702031C352A5608D702C8
:100468005914D636D80B2D2A59080800EA008600F8
:100478008701403FEB00413FEC00423FED00433F26
:10048800EE006B305B2A8100E20AE40A6408860009
:10049800870162080800DE003030DF003A30E000F3
:1004A800080063080A3E86008701403F0800E5000F
:1004B80086008701403FE600413FE700423FE800F1
:1004C800433FE9003C3008248031622380315708DB
:1004D800C1005608C0003C3015248031F622803116
:1004E800222480313C30082480316223803157082F
:1004F800C3005608C2003C3015248031F6228031F2
:100508002224803118300824803162238031570832
:10051800C5005608C400183015248031F6228031F1
:100528005708C7005608C6000730D600D701460846
:10053800043ED8000030473DD9009121803157084A
:10054800CD005608CC004630CA00CB012B248031A0
:10055800C32380314708803AE4005C08803A64028B
:10056800031DB82A5B084602031CC72A20002B2457
:100578008031C32380315B08C6025C08C73BCA0AC6
:100588000319CB0AAA2A20002B248031C3235B0835
:10059800E6000230E6054708CF004608CE00C8014D
:1005A800C90148087F3E84310A0082316604E700A9
:1005B8004708803AE40080306402031DE52A670892
:1005C8004602031CF12A20006708C602031CC70361
:1005D800C80A0319C90AE636D52A2000C60A03192B
:1005E800C70A4034DF01D91F062BD609D709D80915
:1005F800D909D60A0319D70A0319D80A0319D90A37
:10060800DF01DF0ADD1F152BDA09DB09DC09DD094B
:10061800DA0A0319DB0A0319DC0A0319DD0A0130B7
:10062800DF06E001E101E201E3015908580457043B
:10063800560403194B2BDE01DE0AD91B282BD635AD
:10064800D70DD80DD90D202BE035E10DE20DE30DC6
:1006580059085D02031D3A2B58085C02031D3A2B0A
:1006680057085B02031D3A2B56085A02031C452BF8
:100678005608DA025708DB3B5808DC3B5908DD3BD3
:100688006014D936D80CD70CD60CDE0B282B5F0893
:100698000319592BE009E109E209E309E00A031902
:1006A800E10A0319E20A0319E30A6308D900620898
:1006B800D8006108D7006008D6000800DF01DD1FF8
:1006C800722BDA09DB09DC09DD09DA0A0319DB0A0E
:1006D8000319DC0A0319DD0ADF01DF0AD91F7F2BA2
:1006E800D609D709D809D909D60A0319D70A031987
:1006F800D80A0319D90A5908580457045604031983
:10070800AC2BDE01DE0AD91B8E2BD635D70DD80DC2
:10071800D90D862B59085D02031D9C2B58085C02D5
:10072800031D9C2B57085B02031D9C2B56085A027D
:10073800031CA62B5608DA025708DB3B5808DC3B9B
:100748005908DD3BD936D80CD70CD60CDE0B8E2BCE
:100758005F080319BA2BDA09DB09DC09DD09DA0AB3
:100768000319DB0A0319DC0A0319DD0A5D08D9003D
:100778005C08D8005B08D7005A08D60008005B0858
:100788000339031DE42B6430D600D7015C08D90077
:100798005B08D800E823803157085604031DE62B70
:1007A8009030D6000130D7005B082C3ED8000130CD
:1007B8005C3DD900E8238031570856040319E62B1D
:1007C8006D30302C6E30302C570856040319032C2A
:1007D800DA01DA0AD71BF32BD635D70DED2B5708DC
:1007E8005902031DF92B56085802031CFF2B560803
:1007F800D8025708D93BD736D60CDA0BF32B590851
:10080800D7005808D6000800D600D701D801D9016A
:100818006908DD006808DC006708DB006608DA00A4
:100828000800D600D701D801D9016908DD00680899
:10083800DC006708DB006608DA0008005908E900F0
:100848005808E8005708E7005608E60008004B0873
:10085800DC004A08DB000800DB000130DC0008008F
:10086800F300472C0A302000A0000D30A1003E30D4
:10087800A2004F2C780856248431BE014F2C7308EF
:100888002000A0004F2C73080D3A0319362C6C3A3F
:1008980003193E2C432C200823009A002000A001B5
:1008A800BF0A0800F100F2017208203E86008701A5
:1008B8007108840085010008C03F89080319672C66
:1008C800F20AF10A582C7208203E86008701700847
:1008D800840085010008782484310D3078240A309A
:1008E80081002000BF0108008100F20A7208203E42
:1008F8008600080000341F341C341F341E341F3493
:100908001E341F341F341E341F341E341F344A341F
:1009180061346E344634653462344D346134723433
:100928004134703472344D34613479344A34753416
:100938006E344A3475346C34413475346734533406
:10094800653470344F34633474344E346F347634D1
:100958004434653463340034533475346E344D3460
:100968006F346E34543475346534573465346434B4
:1009780054346834753446347234693453346134C9
:1009880074340034640080010131890BC72C0034B1
:00000001FF
