:0400000080314328E0
:1000080080312000111F0C28111321001C081B0827
:100018002000111E28282100111E282878083E3E9D
:10002800860087010108003A0319262878083E3E11
:100038008600010823009A0078083E3E8600810168
:10004800F80A28281112F8012000911E322891126E
:1000580023001908F3008031A5208031131C3928AA
:100068002100131C3928200013102000111C4028DF
:10007800111096017F3097000B190B110900803180
:1000880045282030F8018400003085003C3080315C
:10009800C52080312000502823008C0122009101C6
:1000A80021008C018E0120308D00951295151510B8
:1000B800951015118B168930200098002100111415
:1000C8003E30F401F501922080312030F401F50131
:1000D8009220803123001D169E161E129F159D1713
:1000E8001E1501309C00A0309B00210091161112B2
:1000F80020001310210013100B178B1702303E003D
:100108009400203095000830960097010530920041
:10011800930102309100C43090009128F600F70056
:100128007708860087017408840075088500000830
:10013800C03F890803190800F70AF40A0319F50AE9
:100148009428F000B3280A302000BE000D30BF000C
:100158003E30C000BB2870082000BE00BB287008D5
:100168000D3A0319A7286C3A0319BB28AF282000B9
:100178003E0823009A00210011162000BE01F80A4B
:0E0188000800640080010131890BC628003494
:00000001FF
