:04000000803196288D
:10000800803120007F08F400111F0B280C282B28B2
:10001800111321001C08F000F1017008F100F00133
:1000280075087004F20076087104F3007208200065
:10003800C5007308C600750821001B04F000760887
:10004800F10070082000C5007108C6002B28111E99
:100058002E282F2853282100111E332834285328EE
:100068007A08203E860087010108003A03193D28D6
:100078003E284F287A08203E860087010108230081
:100088009A007A08203E8600870181010130F0003D
:100098007008FA0753281112FA017D155328200019
:1000A800911E572858286128911223001908F0003A
:1000B80070082000CA007D146128131C6428652874
:1000C8006C282100131C69286A286C28200013104A
:1000D8002000111C702871288628111020309600E5
:1000E800FF3097000130E1070030E23D0030E33D8A
:1000F8000030E43D4908031D822886280130C902E2
:10010800862886280B1D89288A2893280B114B08D6
:10011800031D8F2893280130CB0293289328740855
:10012800FF0009008131992923008C0122009101E7
:1001380021008C018E0150308D00951295151514F3
:10014800951015118B168930200098002100111484
:1001580020001310210013102000E701C2282400FA
:1001680091012730920028309500CB282400910176
:10017800CC309200263095001716CB28200067084F
:10018800003A0319B328013A0319BA28CB280B17E8
:100198008B174429442924001614D2281618D52868
:1001A800D628D228D728CC309100DA281418DD2890
:1001B800DE28DA28DF28200095010230E5006508EE
:1001C800CB001A292400161FEA28EB28EE28200065
:1001D8000C101A2920000C149501CB01CB0AF52824
:1001E800F528CB08031DF928FA28F528FB288030C4
:1001F80024009100FF28141802290329FF28042944
:1002080020009501CB01CB0A0A290A29CB08031D36
:100218000E290F290A292400161F132914291A291F
:1002280020000C101A291A291A291A292000CB088B
:10023800031D1F292029E62824001615232916192D
:1002480026292729232928290A302000E5006508BE
:10025800C9002F292F29C908031D332934292F291B
:10026800442944292400141C3A293B29442911080B
:100278002000E5006508E60044294429442944296A
:1002880020006708003A0319CF28013A03193629D4
:100298004429442944298031962800341F341C34C9
:1002A8001F341E341F341E341F341F341E341F34B1
:1002B8001E341F344A3461346E3446346534623433
:1002C8004D34613472344134703472344D34613495
:1002D80079344A3475346E344A3475346C34413464
:1002E800753467345334653470344F34633474343C
:1002F8004E346F34763444346534633400345334C4
:1003080075346E344D346F346E345434753465340A
:10031800573465346434543468347534463472342C
:1003280069345334613474340034FD01F701F80141
:10033800F901FA01FB01FC0120308400003085003E
:1003480045308131B3218131A030840000308500EF
:1003580039308131B32181312000803198286400FF
:0A03680080010131890BB429003433
:00000001FF
