:0400000080315328D0
:1000080080312000111F0C28111321001C081B0827
:100018002000111E252811127708BE3E8600870190
:100028000108003A031924287708BE3E8600010813
:1000380023009A007708BE3E86008101F70A25282A
:10004800F7012000911E3028911223001908F300AF
:10005800730884318C2480312000131C3828210037
:10006800131C3828200013102000111C46281110DA
:1000780096017F309700CD0A0319CE0A0319CF0ADB
:100088000319D00A0B1D090079185128033076028C
:1000980003185028F60A5128F6010B11090080317F
:1000A80055282030F901F601F701F80184000030E5
:1000B800850031308431AC248031A0308400003098
:1000C80085003C308431AC24803120006B2823002B
:1000D8008C012200910121008C018E0120308D00BD
:1000E800F33022009700803021009E0075309D007B
:1000F80040309F0011179512951515109510151180
:100108008B1689302000980021001114F7019528DA
:100118007708BE3E8600870181017708A03E8600E9
:100128008101F70A770B8C2823001D169E161E12D4
:100138009F159D171E1501309C00A0309B002100C3
:100148009116111620001310210013100B178B178E
:10015800F601B6284D307914D8208031F800C62031
:10016800803179107608003A0319AE28013A03194C
:10017800B628033A0319B628013A0319B628B6284F
:1001880080315328F400F501F7017508BE3E86005A
:1001980087017408840085010008C03F8908031995
:1001A8000800F50AF40AC9282000EA004A2280312A
:1001B800DD28DE000330F4005E080C3E860087016F
:1001C80001089521763EDD002030DF00860087019A
:1001D8005D0884310A0082315722803184310A0057
:1001E80082315722803184310A0080318100DF0A50
:1001F8005F0886002030870181000330DF0AF400A1
:100208005E08083E860001089521513EDD005F0822
:10021800860087015D0884310A00823157228031C7
:1002280084310A0082315722803184310A008131B9
:1002380081002030A7005E0886008701463FD9006C
:100248002030DA00DB002A306E2180315E0886001B
:100258008701443F5F2280312D306E2180315E0856
:1002680086008701423F5F22803130306E21803125
:100278005E08860087010108D9003030DA00203096
:10028800DB0033306E2180316430D100D201652229
:100298008031D300413FD400DA2180315108133E28
:1002A800D9002030DA003630DB016E21803164302D
:1002B800D100D20165228031D300413FD400A12171
:1002C80080315108D9003030DA000A30DB0038308C
:1002D8006E212034DC00860087015B088100DC0386
:1002E8005C0886000A30F40059081A228031303E32
:1002F80081000A30F400590832228031D900003ACE
:1003080003198E29DC035C08860087015908303EF2
:1003180081000800DC035C08860087015A08810018
:100328000800D200D10174085218D107F435D2362A
:10033800D208031D972951080800F501D41FAB29DD
:10034800D309D409D30A0319D40AF501F50AD21F2F
:10035800B229D109D209D10A0319D20A5208510483
:100368000319CD29F401F40AD21BBD29D135D20DC8
:10037800B72952085402031DC32951085302031C0C
:10038800C9295108D3025208D43BD236D10CF40BF8
:10039800BD2975080319D529D309D409D30A031926
:1003A800D40A5408D2005308D1000800D601D21F3D
:1003B800E429D109D209D10A0319D20AD601D60AE9
:1003C800D41FED29D309D409D30A0319D40A01305B
:1003D800D606D701D8015208510403190D2AD501B0
:1003E800D50AD21BFA29D135D20DF429D735D80D23
:1003F80052085402031D022A51085302031C092AF9
:100408005108D3025208D43B5714D236D10CD50B1D
:10041800FA2956080319152AD709D809D70A03193A
:10042800D80A5808D2005708D1000800D10008306F
:10043800D200D3015108F5000730F536890B212A7F
:1004480053357504D300D13574085302031C2E2A82
:100458007408D302D20B1E2A53080800D100D30116
:1004680074080319482AD201D20AF41B3D2AF4352C
:10047800382AD33574085102031C452A7408D1025E
:100488005314F436D20B3D2A53080800E5008600C1
:100498008701403FE600413FE700423FE800433F15
:1004A800E90066306B2A8100DD0ADF0A5F088600F2
:1004B80087015D080800D9003030DA003A30DB00E7
:1004C80008005E080A3E86008701403F0800E000F9
:1004D80086008701403FE100413FE200423FE300E0
:1004E800433FE4003C302524803172238031520898
:1004F800BC005108BB003C301824803106238031F1
:10050800322480313C3025248031722380315208D6
:10051800BE005108BD003C301824803106238031CC
:1005280032248031183025248031722380315208DA
:10053800C0005108BF0018301824803106238031CC
:100548005208C2005108C1000730D100D201410849
:10055800043ED3000030423DD400A121803152082E
:10056800C8005108C7004630C500C6013B24803189
:10057800D32380314208803ADF005608803A5F0270
:10058800031DC82A55084102031CD72A20003B2412
:100598008031D32380315508C1025608C23BC50AB1
:1005A8000319C60ABA2A20003B248031D3235508F0
:1005B800E1000230E1054208CA004108C900C30150
:1005C800C4014308453E84310A0082316104E200D7
:1005D8004208803ADF0080305F02031DF52A620876
:1005E8004102031C012B20006208C102031CC20344
:1005F800C30A0319C40AE136E52A2000C10A03190F
:10060800C20A3B34DA01D41F162BD109D209D30907
:10061800D409D10A0319D20A0319D30A0319D40A2F
:10062800DA01DA0AD81F252BD509D609D709D8093E
:10063800D50A0319D60A0319D70A0319D80A0130AB
:10064800DA06DB01DC01DD01DE0154085304520443
:10065800510403195B2BD901D90AD41B382BD13586
:10066800D20DD30DD40D302BDB35DC0DDD0DDE0DB9
:1006780054085802031D4A2B53085702031D4A2BDE
:1006880052085602031D4A2B51085502031C552BCC
:100698005108D5025208D63B5308D73B5408D83BDB
:1006A8005B14D436D30CD20CD10CD90B382B5A0886
:1006B8000319692BDB09DC09DD09DE09DB0A0319EB
:1006C800DC0A0319DD0A0319DE0A5E08D4005D0896
:1006D800D3005C08D2005B08D1000800F501D81FE0
:1006E800822BD509D609D709D809D50A0319D60AFC
:1006F8000319D70A0319D80AF501F50AD41F8F2B55
:10070800D109D209D309D409D10A0319D20A031984
:10071800D30A0319D40A5408530452045104031980
:10072800BC2BF401F40AD41B9E2BD135D20DD30D6A
:10073800D40D962B54085802031DAC2B53085702AE
:10074800031DAC2B52085602031DAC2B5108550251
:10075800031CB62B5108D5025208D63B5308D73B89
:100768005408D83BD436D30CD20CD10CF40B9E2BA6
:1007780075080319CA2BD509D609D709D809D50A86
:100788000319D60A0319D70A0319D80A5808D40036
:100798005708D3005608D2005508D100080055085C
:1007A8000339031DF42B6430D100D2015608D4005C
:1007B8005508D300F823803152085104031DF62B45
:1007C8009030D1000130D20055082C3ED3000130C2
:1007D800563DD400F8238031520851040319F62BF2
:1007E8006D30402C6E30402C520851040319132CE4
:1007F800F401F40AD21B032CD135D20DFD2B52087B
:100808005402031D092C51085302031C0F2C5108D4
:10081800D3025208D43BD236D10CF40B032C540823
:10082800D2005308D1000800D100D201D301D4016D
:100838006408D8006308D7006208D6006108D500AC
:100848000800D100D201D301D4016408D80063089C
:10085800D7006208D6006108D50008005408E400F3
:100868005308E3005208E2005108E1000800460876
:10087800D6004508D5000800D5000130D60008008C
:1008880000341F341C341F341E341F341E341F34EC
:100898001F341E341F341E341F344A3461346E34FE
:1008A8004634653462344D346134723441347034C2
:1008B80072344D34613479344A3475346E344A3480
:1008C80075346C344134753467345334653470345A
:1008D8004F34633474344E346F347634443465346E
:1008E80063340034533475346E344D346F346E349D
:1008F8005434753465345734653464345434683446
:100908007534463472346934533461347434003481
:10091800F0009C2C0A302100BE000D30BF003E3094
:10092800C000A42CF601A42C70082100BE00A42C41
:1009380070080D3A03198E2C6C3A0319962C982CD2
:1009480021003E0823009A002100BE01F70A080092
:0C095800640080010131890BAD2C0034DB
:00000001FF
