:0400000080314B28D8
:1000080080312000111E1F2811122108BE3E8600D3
:1000180087010108003A03191E282108BE3E860000
:10002800010823009A0020002108BE3E86008101B5
:10003800A10A1F28A101911E29289112230019083D
:10004800F100710884316D248031131C302821009F
:10005800131C3028200013102000111C3E281110FA
:1000680096017F309700CF0A0319D00A0319D10AE5
:100078000319D20A0B1D09007B18492803302002F6
:1000880003184828A00A4928A0010B11090080314B
:100098004D282030FB018400003085003330843146
:1000A80090248031A0308400003085003C308431B9
:1000B800902480312000602823008C0122009101C7
:1000C80021008C018E0120308D00F3302200970032
:1000D800803021009E0075309D00951295151510F1
:1000E800951015118B1689302000980021001114E5
:1000F8002000A10188282108BE3E860087018101D1
:100108002108A03E86008101A10A210B7F28230037
:100118001D169E161E129F159D171E1501309C0058
:10012800A0309B002100911611164F30B920803164
:100138001310210013100B178B172000A001A928FA
:100148004F307B14B92080317B102008003A031906
:10015800A428013A0319A928033A0319A928013A3E
:100168000319A928A92880314B282000E3002B2255
:100178008031BE28D7000330F20057080C3E8600B5
:10018800870101087621573ED6002230D800860024
:100198008701560884310A0082313822803184313F
:1001A8000A0082313822803184310A00803181008E
:1001B800D80A580886002030870181000330D80A01
:1001C800F2005708083E860001087621323ED60024
:1001D800580886008701560884310A00823138227F
:1001E800803184310A0082313822803184310A001A
:1001F800803181002030A900570886008701463FDA
:10020800D3002030D400D5002C304F21803157083E
:1002180086008701443F402280312F304F218031B2
:10022800570886008701423F4022803132304F21F3
:1002380080315708860087010108D3003030D40088
:100248002030D50035304F2180316430F200F30181
:1002580046228031F400413FF500BB21803172080D
:10026800133ED3002030D4003830D5014F218031DF
:100278006430F200F30146228031F400413FF5007A
:10028800822180317208D3003030D4000A30D50082
:100298003A304F212234FA00860087015508810040
:1002A800FA037A0886000A30F2005308FB218031ED
:1002B800303E81000A30F200530813228031D30007
:1002C800003A03196F29FA037A0886008701530850
:1002D800303E81000800FA037A0886008701540836
:1002E80081000800F400F30172087418F307F2356E
:1002F800F436F408031D782973080800F701F51F80
:100308008C29F409F509F40A0319F50AF701F70A23
:10031800F31F9329F209F309F20A0319F30A730880
:1003280072040319AE29F601F60AF31B9E29F23569
:10033800F30D982973087502031DA4297208740225
:10034800031CAA297208F4027308F53BF336F20C71
:10035800F60B9E2977080319B629F409F509F40A5A
:100368000319F50A7508F3007408F2000800F7018C
:10037800F31FC529F209F309F20A0319F30AF70171
:10038800F70AF51FCE29F409F509F40A0319F50A45
:100398000130F706F801F901730872040319EE2910
:1003A800F601F60AF31BDB29F235F30DD529F835EA
:1003B800F90D73087502031DE32972087402031C02
:1003C800EA297208F4027308F53B7814F336F20C44
:1003D800F60BDB2977080319F629F809F909F80A51
:1003E8000319F90A7908F3007808F2000800F40004
:1003F8000830F500F6017408F3000730F336890B6E
:10040800022A76357304F600F43572087602031C66
:100418000F2A7208F602F50BFF2976080800F30088
:10042800F50172080319292AF401F40AF21B1E2A9D
:10043800F235192AF53572087302031C262A720848
:10044800F3027514F236F40B1E2A75080800DE0054
:1004580086008701403FDF00413FE000423FE10066
:10046800433FE2005F304C2A8100D60AD80A580878
:100478008600870156080800D3003030D4003A308F
:10048800D500080057080A3E86008701403F08004B
:10049800D90086008701403FDA00413FDB00423F38
:1004A800DC00433FDD003C30F923803153238031A9
:1004B8007308BE007208BD003C3006248031E72274
:1004C8008031132480313C30F9238031532380312B
:1004D8007308C0007208BF003C3006248031E72250
:1004E8008031132480311830F9238031532380312F
:1004F8007308C2007208C100183006248031E72250
:1005080080317308C4007208C3000730F200F30199
:100518004308043EF4000030443DF5008221803158
:100528007308CA007208C9004630C700C8011C24F5
:100538008031B42380314408803AFA007808803A40
:100548007A02031DA92A77084302031CB82A20004F
:100558001C248031B42380317708C3027808C43B57
:10056800C70A0319C80A9B2A20001C248031B42317
:100578007708DA000230DA054408CC004308CB00DB
:10058800C501C6014508263E84310A0082315A0455
:10059800DB004408803AFA0080307A02031DD62A2C
:1005A8005B084302031CE22A20005B08C302031C09
:1005B800C403C50A0319C60ADA36C62A2000C30AC4
:1005C8000319C40A3D34D401F51FF72AF209F309C7
:1005D800F409F509F20A0319F30A0319F40A0319CD
:1005E800F50AD401D40AF91F062BF609F709F80908
:1005F800F909F60A0319F70A0319F80A0319F90A97
:100608000130D406D501D601D701D8017508740484
:100618007304720403193C2BD301D30AF51B192B5D
:10062800F235F30DF40DF50D112BD535D60DD70D8B
:10063800D80D75087902031D2B2B74087802031D49
:100648002B2B73087702031D2B2B72087602031CD1
:10065800362B7208F6027308F73B7408F83B7508E6
:10066800F93B5514F536F40CF30CF20CD30B192B9B
:10067800540803194A2BD509D609D709D809D50A28
:100688000319D60A0319D70A0319D80A5808F50016
:100698005708F4005608F3005508F2000800D40182
:1006A800F91F632BF609F709F809F909F60A03197E
:1006B800F70A0319F80A0319F90AD401D40AF51F2D
:1006C800702BF209F309F409F509F20A0319F30A80
:1006D8000319F40A0319F50A7508740473047204FB
:1006E80003199D2BD301D30AF51B7F2BF235F30D8C
:1006F800F40DF50D772B75087902031D8D2B740801
:100708007802031D8D2B73087702031D8D2B720849
:100718007602031C972B7208F6027308F73B7408DD
:10072800F83B7508F93BF536F40CF30CF20CD30BD7
:100738007F2B54080319AB2BF609F709F809F909B7
:10074800F60A0319F70A0319F80A0319F90A7908C6
:10075800F5007808F4007708F3007608F20008003E
:1007680077080339031DD52B6430F200F3017808AC
:10077800F5007708F400D923803173087204031D4B
:10078800D72B9030F2000130F30077082C3EF400AC
:100798000130783DF500D9238031730872040319BC
:1007A800D72B6D30212C6E30212C7308720403195D
:1007B800F42BF601F60AF31BE42BF235F30DDE2BCE
:1007C80073087502031DEA2B72087402031CF02BD0
:1007D8007208F4027308F53BF336F20CF60BE42BBF
:1007E8007508F3007408F2000800F200F301F40140
:1007F800F5015D08F9005C08F8005B08F7005A0885
:10080800F6000800F200F301F401F5015D08F900B3
:100818005C08F8005B08F7005A08F600080075083D
:10082800DD007408DC007308DB007208DA000800D9
:100838004808F8004708F7000800F7000130F800FA
:10084800080000341F341C341F341E341F341E3477
:100858001F341F341E341F341E341F344A3461348D
:100868006E344634653462344D3461347234413404
:10087800703472344D34613479344A3475346E349A
:100888004A3475346C3441347534673453346534C0
:1008980070344F34633474344E346F3476344434A3
:1008A800653463340034533475346E344D346F34E6
:1008B8006E34543475346534573465346434543480
:1008C800683475344634723469345334613474345A
:1008D8000034F0007F2C0A302100BE000D30BF002C
:1008E8003E30C000872C2000A101A001872C700891
:1008F8002100BE00872C70080D3A03196F2C6C3A42
:100908000319772C7B2C21003E0823009A00210034
:10091800BE012000A10A0800640080010131890B92
:04092800912C0034DA
:00000001FF
