:0400000080314328E0
:1000080080312000111F0C28111321001C081B0827
:100018002000111E28282100111E282878083E3E9D
:10002800860087010108003A0319262878083E3E11
:100038008600010823009A0078083E3E8600810168
:10004800F80A28281112F8012000911E322891126E
:1000580023001908F3008031A3208031131C3928AC
:100068002100131C3928200013102000111C4028DF
:10007800111096017F3097000B190B110900803180
:1000880045282030F8018400003085003C3080315C
:10009800C32080312000502823008C0122009101C8
:1000A80021008C018E0120308D00951295151510B8
:1000B800951015118B168930200098002100111415
:1000C8003E30F401F501902080312030F401F50133
:1000D8009020803123001D169E161E129F159D1715
:1000E8001E1501309C00A0309B00210091161112B2
:1000F80020001310210013100B178B173E009401DA
:10010800083095009601970005309200930104305D
:100118009100C63090008F28F600F7007708860017
:10012800870174088400750885000008C03F8908A5
:1001380003190800F70AF40A0319F50A9228F000CF
:10014800B1280A302000BE000D30BF003E30C0008C
:10015800B92870082000BE00B92870080D3A0319A4
:10016800A5286C3A0319B928AD2820003E082300B9
:100178009A00210011162000BE01F80A0800640048
:0A01880080010131890BC428003406
:00000001FF
