:0400000080314728DC
:1000080080312000111F0C28111321001C081B0827
:100018002000111E262811122108BE3E86008701E5
:100028000108003A031925282108BE3E8600010868
:1000380023009A0020002108BE3E86008101A10A03
:100048002628A101911E2F28911223001908F500D6
:10005800843168248031131C36282100131C36286B
:10006800200013102000111C4428111096017F3025
:100078009700CF0A0319D00A0319D10A0319D20A23
:100088000B190B110900803149282030F701840031
:100098000030850033308431A0248031A0308400C2
:1000A800003085003C308431A024803120005C2859
:1000B80023008C012200910121008C018E01203047
:1000C8008D00F33022009700803021009E007530AB
:1000D8009D0040309F001117951295151510951029
:1000E80015118B168930200098002100111420006A
:1000F800A10187282108BE3E8600870181012108C9
:10010800A03E86008101A10A210B7E2823001D162E
:100118009E161E129F159D171E1501309C00A030BB
:100128009B002100911611162000131021001310B6
:100138000B178B172000A001A5284F30B520803160
:10014800F7002008003A0319A128013A0319A52845
:10015800033A0319A528013A0319A528A5288031CF
:100168004728EC0026228031B928E0000330F60049
:1001780060080C3E8600870101087121523EDF00AD
:100188002230E100860087015F0884310A0082314D
:100198003322803184310A00823133228031843124
:1001A8000A0080318100E10A610886002030870159
:1001B80081000330E10AF6006008083E8600010865
:1001C80071212D3EDF006108860087015F088431B8
:1001D8000A0082313322803184310A00823133228D
:1001E800803184310A00803181002030A900600804
:1001F80086008701463FDB002030DC00DD002C3024
:100208004A218031600886008701443F41228031BD
:100218002F304A218031600886008701423F412201
:10022800803132304A218031600886008701010818
:10023800DB003030DC002030DD0035304A218031F1
:100248006430D300D4013B228031D500413FD60031
:10025800B62180315308133EDB002030DC003830F3
:10026800DD014A2180316430D300D4013B22803142
:10027800D500413FD6007D2180315308DB00303066
:10028800DC000A30DD003A304A212234DE008600E4
:1002980087015D088100DE035E0886000A30F600EB
:1002A8005B08F6218031303E81000A30F6005B0899
:1002B8000E228031DB00003A03196A29DE035E084A
:1002C800860087015B08303E81000800DE035E0877
:1002D800860087015C0881000800D400D3017608F5
:1002E8005418D307F635D436D408031D7329530898
:1002F8000800D801D61F8729D509D609D50A0319B8
:10030800D60AD801D80AD41F8E29D309D409D30A0A
:100318000319D40A540853040319A929D701D70A81
:10032800D41B9929D335D40D932954085602031D9B
:100338009F2953085502031CA5295308D5025408C0
:10034800D63BD436D30CD70B992958080319B129B1
:10035800D509D609D50A0319D60A5608D40055086E
:10036800D3000800D801D41FC029D309D409D30A5F
:100378000319D40AD801D80AD61FC929D509D6091C
:10038800D50A0319D60A0130D806D901DA0154086A
:1003980053040319E929D701D70AD41BD629D33521
:1003A800D40DD029D935DA0D54085602031DDE299B
:1003B80053085502031CE5295308D5025408D63BB7
:1003C8005914D436D30CD70BD62958080319F12958
:1003D800D909DA09D90A0319DA0A5A08D4005908D6
:1003E800D3000800D4000830D500D6015408D30043
:1003F8000730D336890BFD2956355304D600D4353A
:1004080076085602031C0A2A7608D602D50BFA2962
:1004180056080800D300D50176080319242AD40108
:10042800D40AF61B192AF635142AD535760853024C
:10043800031C212A7608D3025514F636D40B192A40
:1004480055080800E70086008701403FE800413F63
:10045800E900423FEA00433FEB006830472A810049
:10046800DF0AE10A6108860087015F080800600862
:100478000A3E86008701403F0800DB003030DC0080
:100488003A30DD000800E20086008701403FE300C3
:10049800413FE400423FE500433FE6003C30F4239F
:1004A80080314E2380315408BE005308BD003C30D3
:1004B80001248031E22280310E2480313C30F42343
:1004C80080314E2380315408C0005308BF003C30AF
:1004D80001248031E22280310E2480311830F42347
:1004E80080314E2380315408C2005308C1001830AF
:1004F80001248031E22280315408C4005308C3002B
:100508000730D300D4014308043ED5000030443DF1
:10051800D6007D2180315408CA005308C9004630EE
:10052800C700C80117248031AF2380314408803ABE
:10053800E1005808803A6102031DA42A57084302C3
:10054800031CB32A200017248031AF2380315708B9
:10055800C3025808C43BC70A0319C80A962A2000D0
:1005680017248031AF235708E3000230E30544081D
:10057800CC004308CB00C501C6014508213E8431A3
:100588000A0082316304E4004408803AE1008030C4
:100598006102031DD12A64084302031CDD2A2000DE
:1005A8006408C302031CC403C50A0319C60AE33658
:1005B800C12A2000C30A0319C40A3D34DC01D61F2E
:1005C800F22AD309D409D509D609D30A0319D40ABA
:1005D8000319D50A0319D60ADC01DC0ADA1F012B34
:1005E800D709D809D909DA09D70A0319D80A031982
:1005F800D90A0319DA0A0130DC06DD01DE01DF0160
:10060800E00156085504540453040319372BDB0141
:10061800DB0AD61B142BD335D40DD50DD60D0C2BD8
:10062800DD35DE0DDF0DE00D56085A02031D262BC1
:1006380055085902031D262B54085802031D262B62
:1006480053085702031C312B5308D7025408D83BD0
:100658005508D93B5608DA3B5D14D636D50CD40C70
:10066800D30CDB0B142B5C080319452BDD09DE09C1
:10067800DF09E009DD0A0319DE0A0319DF0A031995
:10068800E00A6008D6005F08D5005E08D4005D085F
:10069800D3000800DC01DA1F5E2BD709D809D90975
:1006A800DA09D70A0319D80A0319D90A0319DA0A81
:1006B800DC01DC0AD61F6B2BD309D409D509D6096E
:1006C800D30A0319D40A0319D50A0319D60A5608F6
:1006D8005504540453040319982BDB01DB0AD61B79
:1006E8007A2BD335D40DD50DD60D722B56085A0258
:1006F800031D882B55085902031D882B54085802DE
:10070800031D882B53085702031C922B5308D7024A
:100718005408D83B5508D93B5608DA3BD636D50C91
:10072800D40CD30CDB0B7A2B5C080319A62BD70946
:10073800D809D909DA09D70A0319D80A0319D90A2D
:100748000319DA0A5A08D6005908D5005808D400FF
:100758005708D300080057080339031DD02B64300D
:10076800D300D4015808D6005708D500D4238031C7
:1007780054085304031DD22B9030D3000130D40009
:1007880057082C3ED5000130583DD600D42380317F
:10079800540853040319D22B6D301C2C6E301C2CBA
:1007A800540853040319EF2BF601F60AD41BDF2B68
:1007B800D335D40DD92B54085602031DE52B530805
:1007C8005502031CEB2B5308D5025408D63BD436EC
:1007D800D30CF60BDF2B5608D4005508D3000800BD
:1007E800D300D401D501D6016608DA006508D9001E
:1007F8006408D8006308D7000800D300D401D501E5
:10080800D6016608DA006508D9006408D8006308CC
:10081800D70008005608E6005508E5005408E4002B
:100828005308E30008004808D8004708D700080024
:10083800D7000130D800080000341F341C341F349E
:100848001E341F341E341F341F341E341F341E340C
:100858001F344A3461346E344634653462344D345E
:10086800613472344134703472344D3461347934C3
:100878004A3475346E344A3475346C3441347534C2
:1008880067345334653470344F34633474344E34BD
:100898006F347634443465346334003453347534F7
:1008A8006E344D346F346E34543475346534573483
:1008B8006534643454346834753446347234693475
:1008C8005334613474340034F2007B2C0A30210034
:1008D800BE000D30BF003E30C000832C77088C244A
:1008E8008431A001832C72082100BE00832C720879
:1008F8000D3A03196A2C6C3A0319722C772C2100D3
:100908003E0823009A002100BE012000A10A080029
:10091800F000F1017108BE3E86008701700884006E
:1009280085010008C03F890803199D2CF10AF00AC7
:100938008E2C2000A1010800640080010131890B80
:04094800A12C0034AA
:00000001FF
