:0400000080314F28D4
:1000080080312000111F0C28111321001C081B0827
:100018002000111E28282100111E28287208203EC1
:10002800860087010108003A031926287208203E35
:100038008600010823009A007208203E860081018C
:10004800F20A28281112F2012000911E2E2891127E
:10005800230019082000131C36282100131C3628F9
:10006800200013102000111C482811102030960081
:10007800FF309700F30A0319F40A0319F50A031964
:10008800F60A7008031DF0030B1D09000B11710817
:10009800031DF1030900803151282030F001F101DE
:1000A800F201F301F401F501F60184000030850046
:1000B8004B308031E62080312000622823008C01FB
:1000C8002200910121008C018E0150308D00951283
:1000D80095151514951415158B1689302000980060
:1000E8002100111424009101273092002830950036
:1000F80020001310210013100B178B17240016145F
:1001080016188428FF3091001418882820009501BB
:100118000230F100F1080319A0282400161F9728BF
:1001280020000C148E2820000C109501F101F10A12
:10013800F10803198E289C28240016151619A228E0
:100148000A30F000F00803198228A62800344A343F
:1001580061346E344634653462344D3461347234FB
:100168004134703472344D34613479344A347534DE
:100178006E344A3475346C344134753467345334CE
:10018800653470344F34633474344E346F34763499
:100198004434653463340034533475346E344D3428
:1001A8006F346E345434753465345734653464347C
:1001B8005434683475344634723469345334613491
:1001C80074340034640080010131890BE72800345D
:00000001FF
