:0400000080314B28D8
:1000080080312000111F0C28111321001C081B0827
:100018002000111E28282100111E28287908BE3E1C
:10002800860087010108003A031926287908BE3E90
:100038008600010823009A007908BE3E86008101E7
:10004800F90A28281112F9012000911E322891126C
:1000580023001908F3008431EA2480312000131C9E
:100068003A282100131C3A28200013102000111CE4
:100078004828111096017F309700CF0A0319D00A3B
:100088000319D10A0319D20A0B190B11090080317F
:100098004D282030F701F801F9018400003085006F
:1000A8003330853109258031A03084000030850047
:1000B8003C308531092580312000622823008C01DD
:1000C8002200910121008C018E0120308D009512B3
:1000D80095151510951015118B168930200098006C
:1000E80021001114BE30F401AA208031A030F4019F
:1000F800AA20803123001D169E161E129F159D17DB
:100108001E1501309C00A0309B0021009116111291
:10011800200013102100131002303E0094002030FC
:10012800950008309600970105309200930102303F
:100138009100C4309000292180310B178B170A21B8
:100148008031E2208031BA208031A328F500F60002
:10015800760886008701740884310A008031C03F20
:10016800890803190800F60AF40AAC28F50175088D
:10017800203E860087010108F4000330F405D428E6
:100188007508203E8600870181147508203E860088
:100198000110DC287508203E860087018101DC28D3
:1001A8007408013A0319C428033A0319CE28DC2835
:1001B8000230F50A750203180800BB28F12801303F
:1001C800FD208031003A03190800F801F80A0800F8
:1001D8000230F8000800F80108007808003A03190E
:1001E800E328013A0319EC28033A0319EF28FC28FD
:1001F8000800F400203E860087010108F50003305E
:10020800F5057508023A0319013400341A294F30EC
:100218003521A101A10AF701F70A08000230F70009
:1002280008000330F7000800F70108007808003AD2
:1002380003190B29013A03191229033A031915293D
:10024800013A0319182928290800F4017408773E8F
:100258008600023087018101F40A7402031808003D
:100268002A292000EB00A72280313A29DF00033039
:10027800F4005F080C3E860087010108F221D43E95
:10028800DE002230E000860087015E0884310A0023
:100298008231B522803184310A008231B522803121
:1002A80084310A0081318100E00A6008860020302C
:1002B800870181000330E00AF4005F08083E8600E9
:1002C8000108F221AF3EDE006008860087015E0863
:1002D80084310A008231B522803184310A008231AA
:1002E800B522803184310A00813181002030A90093
:1002F8005F0886008701463FDB002030DC00DD0018
:100308002C30CB2180315F0886008701443FBD2215
:1003180080312F30CB2180315F0886008701423F32
:10032800BD2280313230CB2180315F0886008701C1
:100338000108DB003030DC002030DD003530CB2117
:1003480080316430D300D401C3228031D500413FCD
:10035800D600372280315308133EDB002030DC0002
:100368003830DD01CB2180316430D300D401C32281
:100378008031D500413FD600FE2180315308DB0093
:100388003030DC000A30DD003A30CB212234F60070
:10039800860087015D088100F603760886000A302A
:1003A800F4005B0877228031303E81000A30F40087
:1003B8005B088F228031DB00003A0319EB29F60332
:1003C8007608860087015B08303E81000800F60346
:1003D8007608860087015C0881000800F600F501B0
:1003E80074087618F507F435F636F608031DF4296F
:1003F80075080800F501D61F082AD509D609D50AB7
:100408000319D60AF501F50AD41F0F2AD309D4090E
:10041800D30A0319D40A5408530403192A2AF401E5
:10042800F40AD41B1A2AD335D40D142A54085602B8
:10043800031D202A53085502031C262A5308D502F7
:100448005408D63BD436D30CF40B1A2A7508031972
:10045800322AD509D609D50A0319D60A5608D4006E
:100468005508D3000800D801D41F412AD309D4095C
:10047800D30A0319D40AD801D80AD61F4A2AD5099B
:10048800D609D50A0319D60A0130D806D901DA01E6
:100498005408530403196A2AD701D70AD41B572AC8
:1004A800D335D40D512AD935DA0D54085602031D17
:1004B8005F2A53085502031C662A5308D5025408BC
:1004C800D63B5914D436D30CD70B572A58080319DE
:1004D800722AD909DA09D90A0319DA0A5A08D4009A
:1004E8005908D3000800D3000830D400D5015308B8
:1004F800F5000730F536890B7E2A55357504D50089
:10050800D33574085502031C8B2A7408D502D40B02
:100518007B2A55080800D300D50174080319A52AB9
:10052800D401D40AF41B9A2AF435952AD5357408CF
:100538005302031CA22A7408D3025514F436D40BB0
:100548009A2A55080800E60086008701403FE70020
:10055800413FE800423FE900433FEA00673082310B
:10056800C92A8100DE0AE00A6008860087015E0861
:100578000800DB003030DC003A30DD0008005F089E
:100588000A3E86008701403F0800E1008600870197
:10059800403FE200413FE300423FE400433FE500C3
:1005A8003C3083248231D02382315408BE00530862
:1005B800BD003C307624823164238231902482311C
:1005C8003C3083248231D02382315408C000530840
:1005D800BF003C30762482316423823190248231FA
:1005E800183083248231D02382315408C200530842
:1005F800C10018307624823164235408C40053089B
:10060800C3000730D300D4014308043ED5000030AE
:10061800443DD6008131FE2182315408CA00530876
:10062800C9004630C700C80199248231312482317B
:100638004408803AF6005808803A7602031D262BB3
:1006480057084302031C352B20009924823131249A
:1006580082315708C3025808C43BC70A0319C80A9D
:10066800182B20009924823131245708E2000230E7
:10067800E2054408CC004308CB00C501C601450883
:10068800A33E84310A0083316204E3004408803ABF
:10069800F60080307602031D532B63084302031CC7
:1006A8005F2B20006308C302031CC403C50A031997
:1006B800C60AE236432B2000C30A0319C40A3D3494
:1006C800DC01D61F742BD309D409D509D609D30A5E
:1006D8000319D40A0319D50A0319D60ADC01DC0A5E
:1006E800DA1F832BD709D809D909DA09D70A0319D8
:1006F800D80A0319D90A0319DA0A0130DC06DD0120
:10070800DE01DF01E00156085504540453040319BF
:10071800B92BDB01DB0AD61B962BD335D40DD50DAF
:10072800D60D8E2BDD35DE0DDF0DE00D56085A0295
:10073800031DA82B55085902031DA82B540858025D
:10074800031DA82B53085702031CB32B5308D702C9
:100758005408D83B5508D93B5608DA3B5D14D636C1
:10076800D50CD40CD30CDB0B962B5C080319C72BC8
:10077800DD09DE09DF09E009DD0A0319DE0A0319CC
:10078800DF0A0319E00A6008D6005F08D5005E0892
:10079800D4005D08D3000800F501DA1FE02BD70963
:1007A800D809D909DA09D70A0319D80A0319D90ABD
:1007B8000319DA0AF501F50AD61FED2BD309D40976
:1007C800D509D609D30A0319D40A0319D50A031976
:1007D800D60A560855045404530403191A2CF40174
:1007E800F40AD61BFC2BD335D40DD50DD60DF42B1E
:1007F80056085A02031D0A2C55085902031D0A2CD3
:1008080054085802031D0A2C53085702031C142CC1
:100818005308D7025408D83B5508D93B5608DA3B49
:10082800D636D50CD40CD30CF40BFC2B7508031955
:10083800282CD709D809D909DA09D70A0319D80AF7
:100848000319D90A0319DA0A5A08D6005908D50033
:100858005808D4005708D300080057080339031D67
:10086800522C6430D300D4015808D6005708D5005C
:100878005624823154085304031D542C9030D3005D
:100888000130D40057082C3ED5000130583DD60021
:1008980056248231540853040319542C6D309E2C6D
:1008A8006E309E2C540853040319712CF401F40A79
:1008B800D41B612CD335D40D5B2C54085602031D70
:1008C800672C53085502031C6D2C5308D502540895
:1008D800D63BD436D30CF40B612C5608D4005508FB
:1008E800D3000800D300D401D501D6016508DA0089
:1008F8006408D9006308D8006208D7000800D3004C
:10090800D401D501D6016508DA006408D900630866
:10091800D8006208D70008005608E5005508E4002A
:100928005408E3005308E20008004808D8004708C4
:10093800D7000800D7000130D800080000341F3461
:100948001C341F341E341F341E341F341F341E340D
:100958001F341E341F344A3461346E3446346534CF
:1009680062344D34613472344134703472344D34ED
:10097800613479344A3475346E344A3475346C349D
:100988004134753467345334653470344F346334C8
:1009980074344E346F3476344434653463340034FC
:1009A800533475346E344D346F346E345434753476
:1009B8006534573465346434543468347534463493
:1009C800723469345334613474340034F000F82CD0
:1009D8000A302100BE000D30BF003E30C000002D9F
:1009E80070082100BE00002D70080D3A0319EC2C88
:1009F8006C3A0319002DF42C21003E0823009A00BC
:100A080021001116BE01F90A0800640080010131B5
:060A1800890B0A2D0034D9
:00000001FF
