:0400000080315228D1
:1000080080312000111F0C28111321001C081B0827
:100018002000111E262811122108BE3E86008701E5
:100028000108003A031925282108BE3E8600010868
:1000380023009A0020002108BE3E86008101A10A03
:100048002628A101911E3028911223001908F500D5
:100058007508843133248031131C37282100131C80
:100068003728200013102000111C45281110960174
:100078007F309700CF0A0319D00A0319D10A031950
:10008800D20A0B1D090078185028033020020318E3
:100098004F28A00A5028A0010B11090080315428CC
:1000A8002030F801F601F701840000308500333074
:1000B8008431C7248031A0308400003085003C3072
:1000C8008431C72480312000692823008C01220054
:1000D800910121008C018E0120308D00F330220027
:1000E8009700803021009E0075309D0040309F00B1
:1000F8001117951295151510951015118B16893035
:1001080020009800210011142000A1019428210842
:10011800BE3E8600870181012108A03E860081013C
:10012800A10A210B8B2823001D169E161E129F154F
:100138009D171E1501309C00A0309B0021009116D0
:1001480011164F30C7208031F6001310210013100C
:100158000B178B172000A001B7284F307814C72041
:100168008031F60078102008003A0319B128013AC6
:100178000319B728033A0319B728013A0319B7280E
:10018800B728803152282000EC0039228031CC2851
:10019800E0000330D30060080C3E860087010108A8
:1001A8008421B13EDF002230E100860087015F082C
:1001B80084310A0082314622803184310A0082313A
:1001C8004622803184310A0080318100E10A6108C9
:1001D80086002030870181000330E10AD3006008DF
:1001E800083E8600010884218C3EDF0061088600F5
:1001F80087015F0884310A008231462280318431C8
:100208000A0082314622803184310A00813181001E
:100218002030A900600886008701463FDB002030B7
:10022800DC00DD002C305D2180316008860087010C
:10023800443F4E2280312F305D2180316008860096
:100248008701423F4E22803132305D218031600883
:10025800860087010108DB003030DC002030DD003B
:1002680035305D2180316430D300D401542280318F
:10027800D500413FD600C92180315308133EDB0029
:100288002030DC003830DD015D2180316430D3005E
:10029800D40154228031D500413FD60090218031CD
:1002A8005308DB003030DC000A30DD003A305D21D5
:1002B8002234DE00860087015D088100DE035E08C7
:1002C80086000A30D3005B0809228031303E810065
:1002D8000A30D3005B0821228031DB00003A031981
:1002E8007D29DE035E08860087015B08303E8100B9
:1002F8000800DE035E08860087015C0881000800AC
:10030800D500D40153085518D407D335D536D508A8
:10031800031D862954080800D801D61F9A29D50933
:10032800D609D50A0319D60AD801D80AD41FA12993
:10033800D309D409D30A0319D40A54085304031956
:10034800BC29D701D70AD41BAC29D335D40DA6298B
:1003580054085602031DB22953085502031CB82934
:100368005308D5025408D63BD436D30CD70BAC2946
:1003780058080319C429D509D609D50A0319D60A74
:100388005608D4005508D3000800D801D41FD32933
:10039800D309D409D30A0319D40AD801D80AD61F15
:1003A800DC29D509D609D50A0319D60A0130D80699
:1003B800D901DA01540853040319FC29D701D70AD3
:1003C800D41BE929D335D40DE329D935DA0D5408DE
:1003D8005602031DF12953085502031CF829530836
:1003E800D5025408D63B5914D436D30CD70BE92977
:1003F80058080319042AD909DA09D90A0319DA0AA3
:100408005A08D4005908D3000800D5000830D6008F
:10041800D7015508D4000730D436890B102A573530
:100428005404D700D53553085702031C1D2A530816
:10043800D702D60B0D2A57080800D400D601530856
:100448000319372AD501D50AD31B2C2AD335272AD5
:10045800D63553085402031C342A5308D4025614C0
:10046800D336D50B2C2A56080800E70086008701EA
:10047800403FE800413FE900423FEA00433FEB00CC
:1004880068305A2A8100DF0AE10A6108860087017C
:100498005F080800DB003030DC003A30DD0008007F
:1004A80060080A3E86008701403F0800E200860097
:1004B8008701403FE300413FE400423FE500433FFE
:1004C800E6003C3007248031612380315408BE00A7
:1004D8005308BD003C3014248031F522803121249A
:1004E80080313C3007248031612380315408C000BA
:1004F8005308BF003C3014248031F5228031212478
:100508008031183007248031612380315408C200BB
:100518005308C100183014248031F5228031540862
:10052800C4005308C3000730D300D4014308043E75
:10053800D5000030443DD600902180315408CA00CF
:100548005308C9004630C700C8012A248031C22395
:1005580080314408803AE1005908803A6102031D5D
:10056800B72A58084302031CC62A20002A248031CF
:10057800C22380315808C3025908C43BC70A03196B
:10058800C80AA92A20002A248031C2235808E30077
:100598000230E3054408CC004308CB00C501C6017E
:1005A8004508803E84310A0082316304E40044082F
:1005B800803AE10080306102031DE42A64084302A6
:1005C800031CF02A20006408C302031CC403C50AE4
:1005D8000319C60AE336D42A2000C30A0319C40A39
:1005E8003D34DC01D61F052BD309D409D509D6091A
:1005F800D30A0319D40A0319D50A0319D60ADC0148
:10060800DC0ADA1F142BD709D809D909DA09D70A5D
:100618000319D80A0319D90A0319DA0A0130DC06C2
:10062800DD01DE01DF01E0015608550454045304DE
:1006380003194A2BDB01DB0AD61B272BD335D40D34
:10064800D50DD60D1F2BDD35DE0DDF0DE00D56085F
:100658005A02031D392B55085902031D392B54081A
:100668005802031D392B53085702031C442B530807
:10067800D7025408D83B5508D93B5608DA3B5D14D5
:10068800D636D50CD40CD30CDB0B272B5C080319FE
:10069800582BDD09DE09DF09E009DD0A0319DE0A46
:1006A8000319DF0A0319E00A6008D6005F08D500BD
:1006B8005E08D4005D08D3000800DC01DA1F712B46
:1006C800D709D809D909DA09D70A0319D80A0319A1
:1006D800D90A0319DA0ADC01DC0AD61F7E2BD309F2
:1006E800D409D509D609D30A0319D40A0319D50A96
:1006F8000319D60A56085504540453040319AB2B9E
:10070800DB01DB0AD61B8D2BD335D40DD50DD60DC9
:10071800852B56085A02031D9B2B55085902031DA9
:100728009B2B54085802031D9B2B53085702031C8C
:10073800A52B5308D7025408D83B5508D93B56086F
:10074800DA3BD636D50CD40CD30CDB0B8D2B5C08DE
:100758000319B92BD709D809D909DA09D70A03190E
:10076800D80A0319D90A0319DA0A5A08D600590807
:10077800D5005808D4005708D30008005808033992
:10078800031DE32B6430D300D4015908D600580860
:10079800D500E723803154085304031DE52B90301E
:1007A800D3000130D40058082C3ED5000130593D03
:1007B800D600E7238031540853040319E52B6D3024
:1007C8002F2C6E302F2C540853040319022CD701F8
:1007D800D70AD41BF22BD335D40DEC2B5408560270
:1007E800031DF82B53085502031CFE2B5308D50292
:1007F8005408D63BD436D30CD70BF22B5608D4006A
:100808005508D3000800D300D401D501D6016608E5
:10081800DA006508D9006408D8006308D700080022
:10082800D300D401D501D6016608DA006508D900DD
:100838006408D8006308D70008005608E600550881
:10084800E5005408E4005308E30008004808D9000C
:100858004708D8000800D8000130D9000800F20085
:10086800462C0A302100BE000D30BF003E30C000CB
:100878004E2C760857248431A0014E2C7208210092
:10088800BE004E2C72080D3A0319352C6C3A031928
:100898003D2C422C21003E0823009A002100BE0175
:1008A8002000A10A0800F000F1017108BE3E860090
:1008B80087017008840085010008C03F8908031972
:1008C800682CF10AF00A592C78247108BE3E86007B
:1008D8000D3087018100F10A7108BE3E8600333071
:1008E80081002000A1010800770886000D308701EB
:1008F80081007708080000341F341C341F341E346C
:100908001F341E341F341F341E341F341E341F344A
:100918004A3461346E344634653462344D3461345B
:1009280072344134703472344D34613479344A3419
:1009380075346E344A3475346C34413475346734E4
:100948005334653470344F34633474344E346F34F4
:1009580076344434653463340034533475346E3437
:100968004D346F346E3454347534653457346534CB
:1009780064345434683475344634723469345334C6
:10098800613474340034640080010131890BC82C4F
:02099800003429
:00000001FF
