:0400000080314B28D8
:1000080080312000111E1F2811122108BE3E8600D3
:1000180087010108003A03191E282108BE3E860000
:10002800010823009A0020002108BE3E86008101B5
:10003800A10A1F28A101911E29289112230019083D
:10004800F3007308843170248031131C3028210098
:10005800131C3028200013102000111C3E281110FA
:1000680096017F309700CF0A0319D00A0319D10AE5
:100078000319D20A0B1D09007818492803302002F9
:1000880003184828A00A4928A0010B11090080314B
:100098004D282030F801F901840000308500333004
:1000A8008431A8248031A0308400003085003C30A1
:1000B8008431A82480312000612823008C0122008B
:1000C800910121008C018E0120308D00F330220037
:1000D8009700803021009E0075309D00951295157F
:1000E8001510951015118B168930200098002100E5
:1000F80011142000A10189282108BE3E860087012D
:1001080081012108A03E86008101A10A210B8028D7
:1001180023001D169E161E129F159D171E150130D1
:100128009C00A0309B002100911611164F30BC2076
:100138008031F9001310210013100B178B172000C2
:10014800A001AC284F307814BC208031F900781019
:100158002008003A0319A628013A0319AC28033AE3
:100168000319AC28013A0319AC28AC2880314B2874
:100178002000EC002E228031C128DC000330F4007E
:100188005C080C3E86008701010879215A3EDB0095
:100198002230DD00860087015B0884310A00823145
:1001A8003B22803184310A0082313B228031843104
:1001B8000A0080318100DD0A5D0886002030870151
:1001C80081000330DD0AF4005C08083E860001085F
:1001D8007921353EDB005D08860087015B088431A4
:1001E8000A0082313B22803184310A0082313B226D
:1001F800803184310A00803181002030A9005C08F8
:1002080086008701463FD7002030D800D9002C301F
:10021800522180315C0886008701443F43228031A7
:100228002F30522180315C0886008701423F4322EB
:1002380080313230522180315C0886008701010804
:10024800D7003030D8002030D900353052218031E5
:100258006430F400F50149228031F600413FF7008F
:10026800BE2180317408133ED7002030D8003830C2
:10027800D901522180316430F400F50149228031DE
:10028800F600413FF700852180317408D7003030EF
:10029800D8000A30D9003A3052212234DA008600D8
:1002A800870159088100DA035A0886000A30F400E9
:1002B8005708FE218031303E81000A30F40057088B
:1002C80016228031D700003A03197229DA035A0836
:1002D800860087015708303E81000800DA035A0873
:1002E80086008701580881000800F600F5017408A7
:1002F8007618F507F435F636F608031D7B297508D8
:100308000800D401F71F8F29F609F709F60A03191F
:10031800F70AD401D40AF51F9629F409F509F40A55
:100328000319F50A750874040319B129D301D30A0E
:10033800F51BA129F435F50D9B2975087702031DD6
:10034800A72974087602031CAD297408F6027508FB
:10035800F73BF536F40CD30BA12954080319B92936
:10036800F609F709F60A0319F70A7708F500760877
:10037800F4000800D401F51FC829F409F509F40AA6
:100388000319F50AD401D40AF71FD129F609F70988
:10039800F60A0319F70A0130D406D501D601750803
:1003A80074040319F129D301D30AF51BDE29F435A6
:1003B800F50DD829D535D60D75087702031DE62920
:1003C80074087602031CED297408F6027508F73BD9
:1003D8005514F536F40CD30BDE2954080319F92902
:1003E800D509D609D50A0319D60A5608F5005508BD
:1003F800F4000800D3000830D400D5015308F500F4
:100408000730F536890B052A55357504D500D335DF
:1004180074085502031C122A7408D502D40B022A48
:1004280055080800F500F701740803192C2AF6018D
:10043800F60AF41B212AF4351C2AF73574087502CC
:10044800031C292A7408F5027714F436F60B212ABE
:1004580077080800E70086008701403FE800413F31
:10046800E900423FEA00433FEB0068304F2A810031
:10047800DB0ADD0A5D08860087015B080800D700F3
:100488003030D8003A30D90008005C080A3E8600AF
:100498008701403F0800E20086008701403FE300F3
:1004A800413FE400423FE500433FE6003C30092479
:1004B8008031562380315408BE005308BD003C30BB
:1004C800FC238031EA228031162480313C30092413
:1004D8008031562380315408C0005308BF003C3097
:1004E800FC238031EA228031162480311830092417
:1004F8008031562380315408C2005308C100183097
:10050800FC238031EA2280315408C4005308C30018
:100518000730F400F5014308043EF6000030443D7E
:10052800F700852180317508CA007408C900463073
:10053800C700C8011F248031B72380314408803A9E
:10054800E1005508803A6102031DAC2A54084302B1
:10055800031CBB2A20001F248031B7238031540894
:10056800C3025508C43BC70A0319C80A9E2A2000BB
:100578001F248031B7235408E3000230E305440800
:10058800CC004308CB00C501C6014508293E84318B
:100598000A0082316304E4004408803AE1008030B4
:1005A8006102031DD92A64084302031CE52A2000BE
:1005B8006408C302031CC403C50A0319C60AE33648
:1005C800C92A2000C30A0319C40A3D34DC01D61F16
:1005D800FA2AD309D409D509D609D30A0319D40AA2
:1005E8000319D50A0319D60ADC01DC0ADA1F092B1C
:1005F800D709D809D909DA09D70A0319D80A031972
:10060800D90A0319DA0A0130DC06DD01DE01DF014F
:10061800E001560855045404530403193F2BDB0129
:10062800DB0AD61B1C2BD335D40DD50DD60D142BB8
:10063800DD35DE0DDF0DE00D56085A02031D2E2BA9
:1006480055085902031D2E2B54085802031D2E2B42
:1006580053085702031C392B5308D7025408D83BB8
:100668005508D93B5608DA3B5D14D636D50CD40C60
:10067800D30CDB0B1C2B5C0803194D2BDD09DE09A1
:10068800DF09E009DD0A0319DE0A0319DF0A031985
:10069800E00A6008D6005F08D5005E08D4005D084F
:1006A800D3000800F501DA1F662BD709D809D90944
:1006B800DA09D70A0319D80A0319D90A0319DA0A71
:1006C800F501F50AD61F732BD309D409D509D60924
:1006D800D30A0319D40A0319D50A0319D60A5608E6
:1006E8005504540453040319A02BF401F40AD61B2F
:1006F800822BD335D40DD50DD60D7A2B56085A0238
:10070800031D902B55085902031D902B54085802BD
:10071800031D902B53085702031C9A2B5308D7022A
:100728005408D83B5508D93B5608DA3BD636D50C81
:10073800D40CD30CF40B822B75080319AE2BD709F4
:10074800D809D909DA09D70A0319D80A0319D90A1D
:100758000319DA0A5A08D6005908D5005808D400EF
:100768005708D300080054080339031DD82B6430F8
:10077800F400F5015508F7005408F600DC23803131
:1007880075087404031DDA2B9030F4000130F5006D
:1007980054082C3EF6000130553DF700DC2380312B
:1007A800750874040319DA2B6D30242C6E30242C50
:1007B800750874040319F72BD301D30AF51BE72B2B
:1007C800F435F50DE12B75087702031DED2B740840
:1007D8007602031CF32B7408F6027508F73BF5360E
:1007E800F40CD30BE72B7708F5007608F400080023
:1007F800D300D401D501D6016608DA006508D9000E
:100808006408D8006308D7000800D300D401D501D4
:10081800D6016608DA006508D9006408D8006308BC
:10082800D70008005608E6005508E5005408E4001B
:100838005308E30008004808D5004708D40008001A
:10084800D4000130D500080000341F341C341F3494
:100858001E341F341E341F341F341E341F341E34FC
:100868001F344A3461346E344634653462344D344E
:10087800613472344134703472344D3461347934B3
:100888004A3475346E344A3475346C3441347534B2
:1008980067345334653470344F34633474344E34AD
:1008A8006F347634443465346334003453347534E7
:1008B8006E344D346F346E34543475346534573473
:1008C8006534643454346834753446347234693465
:1008D8005334613474340034F200832C0A3021001C
:1008E800BE000D30BF003E30C0008B2C7908942428
:1008F8008431A0018B2C72082100BE008B2C720859
:100908000D3A0319722C6C3A03197A2C7F2C2100AA
:100918003E0823009A002100BE012000A10A080019
:10092800F000F1017108BE3E86008701700884005E
:1009380085010008C03F89080319A52CF10AF00AAF
:10094800962C2000A1010800640080010131890B68
:04095800A92C003492
:00000001FF
